:020000040800F2
:1000000000500020352700084D2200085322000828
:10001000592200085F220008652200080000000045
:100020000000000000000000000000006B2200083B
:100030007722000800000000832200088F220008B9
:100040007D2700087D2700087D2700087D27000800
:100050007D2700087D2700087D2700087D270008F0
:100060007D2700087D2700087D2700087D270008E0
:100070007D2700087D2700087D2700087D270008D0
:100080007D2700087D2700087D2700087D270008C0
:100090007D2700087D2700087D2700087D270008B0
:1000A0007D2700087D2700087D2700087D270008A0
:1000B0009D2200087D2700087D2700087D27000875
:1000C0007D2700087D2700087D2700087D27000880
:1000D0007D2700087D270008B12200087D27000841
:1000E0007D2700087D2700087D270008000000000C
:1000F0000000000000000000000000000000000000
:0C01000000000000000000005FF808F1A3
:1001100010B5054C237833B9044B13B10448AFF341
:1001200000800123237010BDE401002000000000C6
:100130007881000808B5034B1BB103490348AFF3AE
:10014000008008BD00000000E80100207881000860
:10015000034613F8012B002AFBD1181A0138704707
:1001600081F0004102E000BF83F0004330B54FEA68
:1001700041044FEA430594EA050F08BF90EA020FD5
:100180001FBF54EA000C55EA020C7FEA645C7FEA68
:10019000655C00F0E2804FEA5454D4EB5555B8BF8B
:1001A0006D420CDD2C4480EA020281EA030382EAFC
:1001B000000083EA010180EA020281EA0303362D8E
:1001C00088BF30BD11F0004F4FEA01314FF4801C61
:1001D0004CEA113102D0404261EB410113F0004F73
:1001E0004FEA03334CEA133302D0524263EB43032A
:1001F00094EA050F00F0A780A4F10104D5F1200EC8
:100200000DDB02FA0EFC22FA05F2801841F1000122
:1002100003FA0EF2801843FA05F359410EE0A5F1F6
:1002200020050EF1200E012A03FA0EFC28BF4CF027
:10023000020C43FA05F3C01851EBE37101F00045DD
:1002400007D54FF0000EDCF1000C7EEB00006EEBEA
:100250000101B1F5801F1BD3B1F5001F0CD3490874
:100260005FEA30004FEA3C0C04F101044FEA4452CB
:1002700012F5800F80F09A80BCF1004F08BF5FEA52
:10028000500C50F1000041EB045141EA050130BD32
:100290005FEA4C0C404141EB0101013C28BFB1F544
:1002A000801FE9D291F0000F04BF01460020B1FA8F
:1002B00081F308BF2033A3F10B03B3F120020CDA62
:1002C0000C3208DD02F1140CC2F10C0201FA0CF040
:1002D00021FA02F10CE002F11402D8BFC2F1200CA5
:1002E00001FA02F120FA0CFCDCBF41EA0C0190405B
:1002F000E41AA2BF01EB0451294330BD6FEA0404A4
:100300001F3C1CDA0C340EDC04F11404C4F120028E
:1003100020FA04F001FA02F340EA030021FA04F3A0
:1003200045EA030130BDC4F10C04C4F1200220FAF7
:1003300002F001FA04F340EA0300294630BD21FA35
:1003400004F0294630BD94F0000F83F4801306BFFB
:1003500081F480110134013D4EE77FEA645C18BFEF
:100360007FEA655C29D094EA050F08BF90EA020F86
:1003700005D054EA000C04BF1946104630BD91EA7E
:10038000030F1EBF0021002030BD5FEA545C05D181
:100390004000494128BF41F0004130BD14F58004C0
:1003A0003CBF01F5801130BD01F0004545F0FE4134
:1003B00041F470014FF0000030BD7FEA645C1ABF69
:1003C000194610467FEA655C1CBF0B46024650EAA0
:1003D000013406BF52EA033591EA030F41F40021CC
:1003E00030BD00BF90F0000F04BF0021704730B552
:1003F0004FF4806404F132044FF000054FF0000127
:1004000050E700BF90F0000F04BF0021704730B5E7
:100410004FF4806404F1320410F0004548BF4042BC
:100420004FF000013EE700BF42004FEAE2014FEA11
:1004300031014FEA02701FBF12F07F4393F07F4FEC
:1004400081F06051704732F07F4208BF704793F0EF
:100450007F4F04BF41F40021704730B54FF4607402
:1004600001F0004521F000411CE700BF50EA010205
:1004700008BF704730B54FF000050AE050EA0102AE
:1004800008BF704730B511F0004502D5404261EB1E
:1004900041014FF4806404F132045FEA915C3FF45F
:1004A000D8AE4FF003025FEADC0C18BF03325FEAFC
:1004B000DC0C18BF033202EBDC02C2F1200300FAAD
:1004C00003FC20FA02F001FA03FE40EA0E0021FAD2
:1004D00002F11444BDE600BF70B54FF0FF0C4CF4C0
:1004E000E06C1CEA11541DBF1CEA135594EA0C0F72
:1004F00095EA0C0F00F0DEF82C4481EA030621EAAD
:100500004C5123EA4C5350EA013518BF52EA0335E7
:1005100041F4801143F4801338D0A0FB02CE4FF099
:100520000005E1FB02E506F00042E0FB03E54FF0C9
:100530000006E1FB03569CF0000F18BF4EF0010EC1
:10054000A4F1FF04B6F5007F64F5407404D25FEABD
:100550004E0E6D4146EB060642EAC62141EA555170
:100560004FEAC52040EA5E504FEACE2EB4F1FD0CB2
:1005700088BFBCF5E06F1ED8BEF1004F08BF5FEA30
:10058000500E50F1000041EB045170BD06F00046E2
:1005900046EA010140EA020081EA0301B4EB5C048F
:1005A000C2BFD4EB0C0541EA045170BD41F4801187
:1005B0004FF0000E013C00F3AB8014F1360FDEBFAC
:1005C000002001F0004170BDC4F10004203C35DA88
:1005D0000C341BDC04F11404C4F1200500FA05F30B
:1005E00020FA04F001FA05F240EA020001F00042AC
:1005F00021F0004110EBD37021FA04F642EB060122
:100600005EEA430E08BF20EAD37070BDC4F10C044B
:10061000C4F1200500FA04F320FA05F001FA04F20F
:1006200040EA020001F0004110EBD37041F10001FB
:100630005EEA430E08BF20EAD37070BDC4F1200506
:1006400000FA05F24EEA020E20FA04F301FA05F26E
:1006500043EA020321FA04F001F0004121FA04F216
:1006600020EA020000EBD3705EEA430E08BF20EAE6
:10067000D37070BD94F0000F0FD101F00046400020
:1006800041EB010111F4801F08BF013CF7D041EAA2
:10069000060195F0000F18BF704703F000465200A6
:1006A00043EB030313F4801F08BF013DF7D043EA77
:1006B0000603704794EA0C0F0CEA135518BF95EA2D
:1006C0000C0F0CD050EA410618BF52EA4306D1D1B4
:1006D00081EA030101F000414FF0000070BD50EAD3
:1006E000410606BF1046194652EA430619D094EA5D
:1006F0000C0F02D150EA013613D195EA0C0F05D147
:1007000052EA03361CBF104619460AD181EA03019A
:1007100001F0004141F0FE4141F470014FF0000052
:1007200070BD41F0FE4141F4780170BD70B54FF0ED
:10073000FF0C4CF4E06C1CEA11541DBF1CEA13556D
:1007400094EA0C0F95EA0C0F00F0A7F8A4EB05044F
:1007500081EA030E52EA03354FEA013100F0888046
:100760004FEA03334FF0805545EA131343EA12630F
:100770004FEA022245EA111545EA10654FEA0026C4
:100780000EF000419D4208BF964244F1FD0404F57D
:10079000407402D25B084FEA3202B61A65EB0305D9
:1007A0005B084FEA32024FF480104FF4002CB6EB96
:1007B000020E75EB030E22BFB61A754640EA0C0016
:1007C0005B084FEA3202B6EB020E75EB030E22BF56
:1007D000B61A754640EA5C005B084FEA3202B6EB97
:1007E000020E75EB030E22BFB61A754640EA9C0056
:1007F0005B084FEA3202B6EB020E75EB030E22BF26
:10080000B61A754640EADC0055EA060E18D04FEAE3
:10081000051545EA16754FEA06164FEAC30343EA83
:1008200052734FEAC2025FEA1C1CC0D111F4801F50
:100830000BD141EA00014FF000004FF0004CB6E749
:1008400011F4801F04BF01430020B4F1FD0C88BFE8
:10085000BCF5E06F3FF6AFAEB5EB030C04BFB6EBF3
:10086000020C5FEA500C50F1000041EB045170BDE6
:100870000EF0004E4EEA113114EB5C04C2BFD4EB13
:100880000C0541EA045170BD41F480114FF0000E97
:10089000013C90E645EA060E8DE60CEA135594EA13
:1008A0000C0F08BF95EA0C0F3FF43BAF94EA0C0F16
:1008B0000AD150EA01347FF434AF95EA0C0F7FF48B
:1008C00025AF104619462CE795EA0C0F06D152EADF
:1008D00003353FF4FDAE1046194622E750EA4106C3
:1008E00018BF52EA43067FF4C5AE50EA41047FF4D4
:1008F0000DAF52EA43057FF4EBAE12E74FF0FF3C39
:1009000006E000BF4FF0010C02E000BF4FF0010C09
:100910004DF804CD4FEA410C7FEA6C5C4FEA430C82
:1009200018BF7FEA6C5C1BD001B050EA410C0CBFD1
:1009300052EA430C91EA030F02BF90EA020F002033
:10094000704710F1000F91EA030F58BF994208BF9A
:1009500090422CBFD8176FEAE37040F00100704757
:100960004FEA410C7FEA6C5C02D150EA013C07D1AE
:100970004FEA430C7FEA6C5CD6D152EA033CD3D0F9
:100980005DF8040B704700BF8446104662468C46F3
:100990001946634600E000BF01B5FFF7B7FF002826
:1009A00048BF10F1000F01BD4DF808EDFFF7F4FF4F
:1009B0000CBF012000205DF808FB00BF4DF808EDDA
:1009C000FFF7EAFF34BF012000205DF808FB00BFFD
:1009D0004DF808EDFFF7E0FF94BF012000205DF81F
:1009E00008FB00BF4DF808EDFFF7CEFF94BF0120D4
:1009F00000205DF808FB00BF4DF808EDFFF7C4FFCD
:100A000034BF012000205DF808FB00BF4FEA410C15
:100A10007FEA6C5C02D150EA013C0AD14FEA430CF8
:100A20007FEA6C5C02D152EA033C02D14FF0000035
:100A300070474FF0010070474FEA410212F5001273
:100A400015D211D56FF47873B3EB625212D94FEA15
:100A5000C12343F0004343EA505311F0004F23FAFF
:100A600002F018BF404270474FF00000704750EA54
:100A7000013005D111F0004008BF6FF00040704711
:100A80004FF00000704700BF4FEA4102B2F1E0436F
:100A900024BFB3F5001CDCF1FE5C0DD901F0004C65
:100AA0004FEAC0024CEA5070B2F1004F40EB8300B5
:100AB00008BF20F00100704711F0804F21D113F1E1
:100AC0003872BCBF01F00040704741F480114FEA1A
:100AD0005252C2F11802C2F1200C10FA0CF320FAA3
:100AE00002F018BF40F001004FEAC1234FEAD323C0
:100AF00003FA0CFC40EA0C0023FA02F34FEA43032A
:100B0000CCE77FEA625307D150EA01331EBF4FF0B2
:100B1000FE4040F44000704701F0004040F0FE40CD
:100B200040F40000704700BF80F0004002E000BFCA
:100B300081F0004142001FBF5FEA410392EA030FC8
:100B40007FEA226C7FEA236C6AD04FEA1262D2EB12
:100B50001363C1BFD218414048404140B8BF5B4217
:100B6000192B88BF704710F0004F40F4000020F0B0
:100B70007F4018BF404211F0004F41F4000121F0C6
:100B80007F4118BF494292EA030F3FD0A2F1010210
:100B900041FA03FC10EB0C00C3F1200301FA03F14E
:100BA00000F0004302D5494260EB4000B0F5000F71
:100BB00013D3B0F1807F06D340084FEA310102F130
:100BC0000102FE2A51D2B1F1004F40EBC25008BFE2
:100BD00020F0010040EA03007047490040EB0000AC
:100BE000013A28BFB0F5000FEDD2B0FA80FCACF1AD
:100BF000080CB2EB0C0200FA0CF0AABF00EBC250DA
:100C000052421843BCBFD0401843704792F0000FC7
:100C100081F4000106BF80F400000132013BB5E71A
:100C20004FEA41037FEA226C18BF7FEA236C21D090
:100C300092EA030F04D092F0000F08BF08467047F5
:100C400090EA010F1CBF0020704712F07F4F04D1C3
:100C5000400028BF40F00040704712F100723CBFD6
:100C600000F50000704700F0004343F0FE4040F400
:100C7000000070477FEA226216BF08467FEA2363BE
:100C80000146420206BF5FEA412390EA010F40F4A9
:100C9000800070474FF0000304E000BF10F00043F5
:100CA00048BF40425FEA000C08BF704743F09643DC
:100CB00001464FF000001CE050EA010208BF7047F7
:100CC0004FF000030AE000BF50EA010208BF70477E
:100CD00011F0004302D5404261EB41015FEA010C93
:100CE00002BF84460146002043F0B64308BFA3F18B
:100CF0008053A3F50003BCFA8CF2083AA3EBC2536D
:100D000010DB01FA02FC634400FA02FCC2F120028B
:100D1000BCF1004F20FA02F243EB020008BF20F0C2
:100D20000100704702F1200201FA02FCC2F1200228
:100D300050EA4C0021FA02F243EB020008BF20EA1D
:100D4000DC7070474FF0FF0C1CEAD0521EBF1CEA4B
:100D5000D15392EA0C0F93EA0C0F6FD01A4480EA39
:100D6000010C400218BF5FEA41211ED04FF0006322
:100D700043EA501043EA5111A0FB01310CF000404E
:100D8000B1F5000F3EBF490041EAD3715B0040EA74
:100D9000010062F17F02FD2A1DD8B3F1004F40EB44
:100DA000C25008BF20F00100704790F0000F0CF017
:100DB000004C08BF49024CEA502040EA51207F3ADB
:100DC000C2BFD2F1FF0340EAC250704740F40000B6
:100DD0004FF00003013A5DDC12F1190FDCBF00F0A7
:100DE00000407047C2F10002410021FA02F1C2F155
:100DF000200200FA02FC5FEA310040F1000053EAF1
:100E00004C0308BF20EADC70704792F0000F00F03E
:100E1000004C02BF400010F4000F013AF9D040EA44
:100E20000C0093F0000F01F0004C02BF490011F4D8
:100E3000000F013BF9D041EA0C018FE70CEAD153D6
:100E400092EA0C0F18BF93EA0C0F0AD030F0004C56
:100E500018BF31F0004CD8D180EA010000F000400A
:100E6000704790F0000F17BF90F0004F084691F0C8
:100E7000000F91F0004F14D092EA0C0F01D1420202
:100E80000FD193EA0C0F03D14B0218BF084608D1CB
:100E900080EA010000F0004040F0FE4040F4000015
:100EA000704740F0FE4040F4400070474FF0FF0CA8
:100EB0001CEAD0521EBF1CEAD15392EA0C0F93EAEF
:100EC0000C0F69D0A2EB030280EA010C49024FEA41
:100ED000402037D04FF0805343EA111143EA1013FA
:100EE0000CF000408B4238BF5B0042F17D024FF4B2
:100EF000000C8B4224BF5B1A40EA0C00B3EB510F8D
:100F000024BFA3EB510340EA5C00B3EB910F24BF75
:100F1000A3EB910340EA9C00B3EBD10F24BFA3EBFA
:100F2000D10340EADC001B0118BF5FEA1C1CE0D1C2
:100F3000FD2A3FF650AF8B4240EBC25008BF20F075
:100F4000010070470CF0004C4CEA50207F32C2BFC9
:100F5000D2F1FF0340EAC250704740F400004FF066
:100F60000003013A37E792F0000F00F0004C02BF97
:100F7000400010F4000F013AF9D040EA0C0093F061
:100F8000000F01F0004C02BF490011F4000F013BBB
:100F9000F9D041EA0C0195E70CEAD15392EA0C0F23
:100FA00008D142027FF47DAF93EA0C0F7FF470AF5B
:100FB000084676E793EA0C0F04D14B023FF44CAF9E
:100FC00008466EE730F0004C18BF31F0004CCAD133
:100FD00030F000427FF45CAF31F000437FF43CAF6F
:100FE0005FE700BF80B586B000AF78600B467B80BE
:100FF00007F1080300221A605A609A60DA607B8861
:10100000BB600123FB6002237B6107F108031946E3
:10101000786801F0F9FD00BF1837BD4680BD80B586
:1010200086B000AF78600B467B8007F10803002292
:101030001A605A609A60DA607B88BB600023FB60AC
:1010400000233B6107F108031946786801F0DCFDD5
:1010500000BF1837BD4680BD80B500AF40210D48A8
:10106000FFF7C0FF002240210A4801F068FF44F268
:10107000506001F0F7F901224021064801F05FFFBE
:10108000142001F0EFF940210248FFF7C8FF00BF2C
:1010900080BD00BF0008014080B582B000AF0023D2
:1010A000FB71282001F0DEF940210F4801F030FFEC
:1010B0000346002B0BD1502001F0D4F940210A48FF
:1010C00001F026FF0346002B01D00123FB7100BF76
:1010D0004021054801F01CFF0346002BF8D1FB79A5
:1010E00018460837BD4680BD0008014080B582B073
:1010F00000AF0023BB710023FB7137E000BF40212C
:101100001E4801F005FF0346002BF8D0282001F00F
:10111000A9F94021194801F0FBFE0346002B0ED12E
:10112000FB79C3F10703012202FA03F35BB2DB434D
:101130005AB297F9063013405BB2BB710BE0FB79F2
:10114000C3F10703012202FA03F35AB297F90630FA
:1011500013435BB2BB7100BF4021084801F0D8FEC9
:101160000346002BF8D1FB790133FB71FB79072B88
:10117000C4D9BB7918460837BD4680BD0008014078
:1011800090B583B000AFFFF767FF0023FB71FFF757
:1011900083FF03465AB2174B1A700AE0FFF75CFF51
:1011A000FFF77AFF03465AB2124B1A70FB790133EC
:1011B000FB71104B93F90030B3F1FF3F02D1FB7983
:1011C000022BEBD9FB79022B0FD80023BB7109E06E
:1011D000BC79FFF78BFF03461A46074B1A55BB79BC
:1011E0000133BB71BB79042BF2D900BF0C37BD466C
:1011F00090BD00BF1402002000020020000000008B
:1012000090B5A1B002AFA64B93F90030B3F1FF3F08
:1012100000F03681A34B1B781846FFF73BFD0446D0
:10122000A04B5B781846FFF735FD03469E491846EC
:10123000FFF73CFE034619462046FFF77BFC0346BA
:101240001A469A4B1A60974B9B781846FFF722FD77
:101250000446944BDB781846FFF71CFD0346924981
:101260001846FFF723FE034619462046FFF762FCA7
:1012700003461A468E4B1A608D4B1B681846FFF7C3
:10128000D3F885A3D3E90023FFF726F902460B46DE
:10129000104619464FF00002864BFEF767FF0246E4
:1012A0000B4610461946FFF7EFFB0346824A1360D0
:1012B00000F080F90021002000F086F97B4B1B68CC
:1012C0001846FFF7B1F802460B467C497C4804F00B
:1012D000D9FC7B4800F0C5F90021012000F074F929
:1012E00000237B67774B1B78012B62D1704B1B6807
:1012F0001846FFF799F802460B4607F13400724989
:1013000004F0C0FC03461A4607F1340311461846A0
:1013100001F0F0F97867664B1B681846FFF784F810
:1013200002460B463846796F0091684904F0AAFCE2
:1013300003469AB239463223654803F026FB5B4BDD
:101340001B681846FFF770F802460B4607F1340099
:10135000604904F097FC03461A4607F1340311462E
:10136000184601F0C7F97867504B1B681846FFF71D
:101370005BF802460B463846796F0091564904F0F7
:1013800081FC03469AB239463223514803F0FDFAF4
:10139000474B1B681846FFF747F802460B46DF210C
:1013A00000914E494E4804F06DFC4D4800F059F94B
:1013B0006BE0444B1B78002B67D13F4B1B681846F2
:1013C000FFF732F802460B4607F13400454904F0B6
:1013D00059FC03461A4607F134031146184601F03A
:1013E00089F97867344B1B681846FFF71DF80246E9
:1013F0000B463846796F00913B4904F043FC0346A5
:101400009AB239463223324803F0BFFA274B1B68A1
:101410001846FFF709F802460B4607F134002D493C
:1014200004F030FC03461A4607F13403114618460F
:1014300001F060F978671D4B1B681846FEF7F4FF52
:1014400002460B463846796F0091234904F01AFC96
:1014500003469AB2394632231D4803F096FA164BDA
:101460001B681846FEF7E0FF02460B46DF2100919D
:101470001E491B4804F006FC194800F0F2F804E08D
:1014800000F098F81A4800F0ECF800BF7C37BD4631
:1014900090BD00BFAFF30080CDCCCCCCCCCCFC3F1A
:1014A0001402002000020020000020410802002059
:1014B0000C02002000004040100200209081000833
:1014C0001802002000000020A4810008B481000858
:1014D00024030020C8810008D8810008EC8100089E
:1014E0002C020020FC8100080C82000820820008E9
:1014F0003082000880B586B002AF0346FB71FB79ED
:1015000023F00F03FB73FB791B01BB73FB7B43F0E1
:101510000C03DBB23B72FB7B43F00803DBB27B7254
:10152000BB7B43F00C03DBB2BB72BB7B43F0080315
:10153000DBB2FB7207F108026423009304237E21CF
:10154000034801F071FE00BF1037BD4680BD00BFEB
:101550004002002080B586B002AF0346FB71FB79E4
:1015600023F00F03FB73FB791B01BB73FB7B43F081
:101570000D03DBB23B72FB7B43F00903DBB27B72F2
:10158000BB7B43F00D03DBB2BB72BB7B43F00903B3
:10159000DBB2FB7207F108026423009304237E216F
:1015A000034801F041FE00BF1037BD4680BD00BFBB
:1015B0004002002080B500AF0120FFF79BFF012013
:1015C00001F040F900BF80BD80B582B000AF786007
:1015D00039607B68002B03D07B68012B05D009E0C4
:1015E0003B6843F080033B6004E03B6843F0C0038A
:1015F0003B6000BF3B68DBB21846FFF77BFF00BFD4
:101600000837BD4680BD80B500AF3320FFF772FFBD
:101610003220FFF76FFF322001F014F92820FFF786
:1016200069FF322001F00EF90120FFF763FF32203D
:1016300001F008F90620FFF75DFF322001F002F902
:101640000C20FFF757FF322001F0FCF80220FFF7D3
:1016500051FF322001F0F6F88020FFF74BFF00BF6A
:1016600080BD80B582B000AF786006E07B685A1C10
:101670007A601B781846FFF76DFF7B681B78002B9C
:10168000F4D100BF00BF0837BD4680BD80B58EB025
:1016900000AFFFF78FFF02210020FFF795FF0D48F5
:1016A000FFF7DFFF03210120FFF78EFF0A48FFF756
:1016B000D8FF3B1D0949184604F0E4FA03469AB2E4
:1016C000391D3223064803F060F900BF3837BD46A4
:1016D00080BD00BF408200084C820008588200088C
:1016E0002403002080B500AFFFF78DFF022100200A
:1016F000FFF76AFF0548FFF7B4FF04210120FFF759
:1017000063FF0348FFF7ADFF00BF80BD7482000890
:101710008082000880B582B000AF78607B681B686B
:10172000104A934219D1104B1B785A1CD1B20E4A61
:1017300011701A460D4B19780D4B99540A4B1B78B2
:101740001E2B02D1084B00221A700A4B01221A707C
:1017500001220649084803F0AAF900BF0837BD4630
:1017600080BD00BF004400406E0400204C040020F7
:10177000500400206F0400202403002080B500AF37
:1017800000F0FEFF00F060F800F092F900F0CCF8F5
:1017900000F064F900F014F900F098F81E4802F027
:1017A000FDFC1E4802F0B0FC00F0A2FE00F038FA8A
:1017B0004FF47A7264211A4800F0AEFA00227821C0
:1017C000184800F0A9FA00224FF49671164800F06C
:1017D000A3FA4FF496720021144800F09DFA4FF4DA
:1017E00096724FF4FA71124800F096FA01224621DF
:1017F000104800F091FA012232210F4800F08CFAD3
:1018000001220E490E4803F052F90E4B1B68184690
:1018100000F092FBF9E700BF94020020DC020020F8
:1018200051240008E51600088D16000881110008F3
:101830000112000889260008792500084C040020C0
:10184000240300206803002080B590B000AF07F1AA
:10185000180328220021184603F0ACFD3B1D00228E
:101860001A605A609A60DA601A610223BB61012330
:10187000BB621023FB6202237B630023BB634FF434
:101880006013FB6307F11803184601F0D3FF03460A
:10189000002B01D000F078F90F237B600223BB609E
:1018A0000023FB604FF480633B6100237B613B1DA1
:1018B0000221184602F040FA0346002B01D000F046
:1018C00063F900BF4037BD4680BD000080B500AF62
:1018D000124B134A1A60114B124A5A600F4B0022E6
:1018E0009A600E4B0022DA600C4B4FF480421A6172
:1018F0000A4B00225A61094B00229A61074B0022D1
:10190000DA61064B00221A62044801F049FB0346E3
:10191000002B01D000F038F900BF80BD400200204C
:1019200000540040A086010080B586B000AF07F1EA
:10193000080300221A605A609A60DA603B4600226F
:101940001A605A601D4B4FF080421A601B4B42F2E6
:101950000F725A60194B00229A60184B3F22DA60CE
:10196000164B00221A61154B00229A61134802F0AF
:101970007BFB0346002B01D000F006F94FF48053A7
:10198000BB6007F1080319460C4802F061FD0346ED
:10199000002B01D000F0F8F800233B6000237B60AF
:1019A0003B461946054802F033FF0346002B01D0A1
:1019B00000F0EAF800BF1837BD4680BD9402002051
:1019C00080B586B000AF07F1080300221A605A60A4
:1019D0009A60DA603B4600221A605A601D4B1E4A2C
:1019E0001A601C4B3F225A601A4B00229A60194B16
:1019F0004FF6FE72DA60174B00221A61154B002277
:101A00009A61144802F030FB0346002B01D000F02D
:101A1000BBF84FF48053BB6007F1080319460D482B
:101A200002F016FD0346002B01D000F0ADF80023B4
:101A30003B6000237B603B461946064802F0E8FE07
:101A40000346002B01D000F09FF800BF1837BD46B9
:101A500080BD00BFDC0200200004004080B500AF64
:101A6000114B124A1A60104B4FF4E1325A600E4B80
:101A700000229A600C4B0022DA600B4B00221A61A4
:101A8000094B0C225A61084B00229A61064B002236
:101A9000DA61054802F02CFF0346002B01D000F06C
:101AA00073F800BF80BD00BF240300200044004045
:101AB00080B588B000AF07F1100300221A605A60A9
:101AC0009A60DA60274B9B69264A43F004039361CE
:101AD000244B9B6903F00403FB60FB68214B9B696B
:101AE000204A43F0100393611E4B9B6903F01003DF
:101AF000BB60BB681B4B9B691A4A43F008039361A8
:101B0000184B9B6903F008037B607B68002260210F
:101B1000154801F014FA00224FF40071134801F047
:101B20000EFA60233B6101237B610023BB6102232A
:101B3000FB6107F1100319460B4801F065F84FF4FB
:101B400000733B6101237B610023BB610223FB61C6
:101B500007F110031946054801F056F800BF203779
:101B6000BD4680BD00100240000801400010014049
:101B700080B582B000AF786000F07CF800F09EFC89
:101B800000BF0837BD4680BD80B400AF72B600BF4D
:101B9000FEE7000080B485B000AF78601E497A6827
:101BA00013469B0013449B000B441B68002B04D17D
:101BB0001A4B02221A70012329E00023FB731649F5
:101BC0007A6813469B0013449B000B4400221A6062
:101BD00011497A6813469B0013449B000B4404335D
:101BE00000221A600C497A6813469B0013449B003C
:101BF0000B44083300221A6007497A6813469B0099
:101C000013449B000B440C3300221A70FB7B1846D4
:101C10001437BD4680BC7047700300203C04002090
:101C200080B582B000AF104B00221A600023FB7118
:101C300010E0FB791846FFF7ADFFFA79F9790B4808
:101C400013469B0013449B00034410331960FB7937
:101C50000133FB71FB79092BEBD9054B00221A707C
:101C600000BF0837BD4680BD380400207003002047
:101C70003C04002080B483B000AF254B1B68002BD0
:101C800040D00023FB71FA79224913469B0013448C
:101C90009B000B441B68002B35D0FA791D49134675
:101CA0009B0013449B000B4404331B68002B15D18D
:101CB000FA79184913469B0013449B000B440C33DC
:101CC0001B78FA790133D8B2124913469B001344AA
:101CD0009B000B440C3302461A7014E0FA790D494C
:101CE00013469B0013449B000B4404331B68FA7992
:101CF000591E084813469B0013449B0003440433B9
:101D0000196000E000BF0C37BD4680BC704700BFC3
:101D10003804002070030020B0B487B000AFF86032
:101D2000B9607A604D4B1B680A2B04D14C4B0122E1
:101D30001A7002238DE00023FB75FA7D474B1B6868
:101D40009A421BD0FA7D474913469B0013449B00DF
:101D50000B4404331B68BA689A4211D3FA7D414997
:101D600013469B0013449B000B4404331B68BA6862
:101D7000D31ABB60FB7D0133FB75DEE700BF00E0DB
:101D800000BF364B1B683B6117E03B695A1E354864
:101D900039690B469B000B449B001844314913469C
:101DA0009B0013449B000B4404461D460FCD0FC4FB
:101DB0002B6823603B69013B3B61FB7D3A699A429A
:101DC000E3DCFA7D254B1B689A4215D0FB7D5A1C3B
:101DD000244913469B0013449B000B4404331968A9
:101DE000FB7D5A1CBB68C91A1E4813469B0013444E
:101DF0009B00034404331960FA7D1A4913469B0083
:101E000013449B000B44FA681A60FA7D1549134687
:101E10009B0013449B000B440433BA681A60FA7D9C
:101E2000104913469B0013449B000B4408337A6807
:101E30001A60FA7D0B4913469B0013449B000B4428
:101E40000C3300221A70054B1B680133034A1360E0
:101E5000FB7D18461C37BD46B0BC704738040020D7
:101E60003C04002070030020B0B584B000AF0346EE
:101E7000FB71FB791846FFF78DFE0346FB72FB7A78
:101E8000002B50D10023FB6017E0FB685A1C284848
:101E9000F9680B469B000B449B00184424491346E9
:101EA0009B0013449B000B4404461D460FCD0FC4FA
:101EB0002B682360FB680133FB601E4B1B68013BF2
:101EC000FA689A42E1DB1B4B1B68013B194A13601D
:101ED000184B1A68164913469B0013449B000B4489
:101EE00000221A60134B1A68114913469B001344D1
:101EF0009B000B44043300221A600E4B1A680C49F5
:101F000013469B0013449B000B44083300221A60C5
:101F1000084B1A68064913469B0013449B000B4468
:101F20000C3300221A70FB7A18461037BD46B0BD3C
:101F30007003002038040020B0B588B000AF78608E
:101F40000023FB77FA7F364913469B0013449B001E
:101F50000B440C331B78002B5DD0FA7F30491346BD
:101F60009B0013449B000B441B689847FA7F2C4945
:101F700013469B0013449B000B440C331B78FA7FE1
:101F8000013BD8B2264913469B0013449B000B44E7
:101F90000C3302461A70FA7F214913469B00134402
:101FA0009B000B4408331B68002B04D1FB7F1846B1
:101FB000FFF75AFF2FE0FA7F194913469B0013449D
:101FC0009B000B4407F108041D460FCD0FC42B687E
:101FD0002360FB7F1846FFF747FF124B1B68012B5E
:101FE00019D1BB68104A93420FD17B68002B0CD0EB
:101FF000BB687A6879681846FFF78EFE0B4B0022A3
:102000001A600B4B00221A6005E0BB6839693A6917
:102010001846FFF781FE00BF2037BD46B0BD00BFA8
:102020007003002004000020011200086803002053
:102030006C03002080B485B000AF154B9B69144A37
:1020400043F001039361124B9B6903F00103BB60F2
:10205000BB680F4BDB690E4A43F08053D3610C4BD6
:10206000DB6903F080537B607B680A4B5B68FB6035
:10207000FB6823F0E063FB60FB6843F00073FB60E8
:10208000044AFB68536000BF1437BD4680BC7047EC
:10209000001002400000014080B58AB000AF7860B7
:1020A00007F1140300221A605A609A60DA607B68B4
:1020B0001B681D4A934232D11C4B9B691B4A43F05B
:1020C00008039361194B9B6903F008033B613B696B
:1020D0004FF440737B611223BB6103233B6207F122
:1020E00014031946124800F08FFD124B5B687B62A7
:1020F0007B6A43F0E0637B627B6A43F002037B62AE
:102100000C4A7B6A5360094BDB69084A43F40013AD
:10211000D361064BDB6903F40013FB60FB6800BF6F
:102120002837BD4680BD00BF00540040001002406B
:10213000000C01400000014080B584B000AF786021
:102140007B681B68B3F1804F14D1154BDB69144ACF
:1021500043F00103D361124BDB6903F00103FB6021
:10216000FB68002200211C2000F067FC1C2000F00E
:1021700080FC10E07B681B680A4A93420BD1084B35
:10218000DB69074A43F00203D361054BDB6903F0C7
:102190000203BB60BB6800BF1037BD4680BD00BFF7
:1021A000001002400004004080B588B000AF7860A5
:1021B00007F1100300221A605A609A60DA607B68A7
:1021C0001B681F4A934237D11E4BDB691D4A43F4FB
:1021D0000033D3611B4BDB6903F40033FB60FB6806
:1021E000184B9B69174A43F004039361154B9B6995
:1021F00003F00403BB60BB6804233B6102237B61E3
:102200000323FB6107F1100319460F4800F0FCFCA3
:1022100008233B6100237B610023BB6107F11003AE
:102220001946094800F0F0FC00220021262000F0A9
:1022300004FC262000F01DFC00BF2037BD4680BDF9
:1022400000440040001002400008014080B400AF8C
:10225000FEE780B400AFFEE780B400AFFEE780B4D5
:1022600000AFFEE780B400AFFEE780B400AF00BF70
:10227000BD4680BC704780B400AF00BFBD4680BC87
:10228000704780B400AF00BFBD4680BC704780B5CA
:1022900000AF00F0BBFA00BF80BD000080B500AF0A
:1022A000024801F0CDFF00BF80BD00BF94020020B6
:1022B00080B500AF024802F02BFC00BF80BD00BF1C
:1022C0002403002080B400AF01231846BD4680BC23
:1022D000704780B582B000AF7860396003F040F895
:1022E000034616221A604FF0FF3318460837BD46E2
:1022F00080BD80B582B000AF78604FF0FF31786864
:10230000FFF7E7FFFEE780B586B000AFF860B96081
:102310007A6000237B610AE0AFF300800146BB686E
:102320005A1CBA60CAB21A707B6901337B617A6940
:102330007B689A42F0DB7B6818461837BD4680BD43
:1023400080B586B000AFF860B9607A6000237B6129
:1023500009E0BB685A1CBA601B781846AFF30080CE
:102360007B6901337B617A697B689A42F1DB7B6828
:1023700018461837BD4680BD80B483B000AF786082
:102380004FF0FF3318460C37BD4680BC704780B411
:1023900083B000AF786039603B684FF400525A60F8
:1023A000002318460C37BD4680BC704780B483B00C
:1023B00000AF7860012318460C37BD4680BC7047DB
:1023C00080B485B000AFF860B9607A600023184629
:1023D0001437BD4680BC704780B586B000AF7860CA
:1023E000144A154BD31A7B617B693B61134B1B6805
:1023F000002B02D1114B124A1A60104B1A687B68ED
:1024000013443A699A4207D202F0AAFF03460C220B
:102410001A604FF0FF3309E0084B1B68FB60074B65
:102420001A687B681344054A1360FB68184618371E
:10243000BD4680BD00500020000400004004002084
:102440008804002080B400AF00BFBD4680BC704748
:1024500080B500AF2021024800F089FD00BF80BD9B
:102460000008014080B483B000AF0346FB80084BF6
:102470001B6800225A6200BF054B1B685A6AFB8822
:102480009A42F9D300BF00BF0C37BD4680BC7047ED
:10249000DC02002080B483B000AF7860054A7B681E
:1024A0001360054B00221A6000BF0C37BD4680BC8C
:1024B000704700BF480400204404002080B400AFEF
:1024C000094B1B68002B0BDD074B1B68013B064AC1
:1024D0001360054B1B68002B02DC044B01221A60C1
:1024E00000BFBD4680BC7047480400204404002063
:1024F00080B500AF1420FFF7CDFF00BF80BD000006
:1025000080B483B000AF00237B6007E00C4A7B6897
:10251000134420221A707B6801337B607B681D2B7B
:10252000F4DD084B00221A70074B00221A70074B8B
:1025300000221A7000BF0C37BD4680BC704700BF38
:1025400050040020700400206E040020710400205C
:1025500080B483B000AF0346FB71FB792F2B04D905
:10256000FB79392B01D8012300E0002318460C37F2
:10257000BD4680BC7047000080B582B000AF394BCB
:102580001B78012B69D1384B1B78402B5AD1374B24
:102590001B78002B04D0354B1B78023BDBB200E0EC
:1025A0001C23324A1370314B1B781A46304B9B5C0C
:1025B000432B06D12F4B01221A702F4B00221A7089
:1025C00043E02A4B1B781A46294B9B5C462B06D1CD
:1025D000284B00221A70284B00221A7035E0234B3A
:1025E0001B781A46224B9B5C1846FFF7B1FF034647
:1025F000002B23D01D4B1B781A461D4B9B5C302BA8
:1026000008D10A233B603B68642202FB03F31B4AA8
:1026100013600CE0154B1B781A46154B9B5C303B46
:102620007B607B68642202FB03F3144A1360144B43
:1026300001221A60104B00221A7006E00E4B012294
:102640001A7002E00C4B01221A700E4B01221A7014
:10265000FFF756FF034B00221A7000BF0837BD4634
:1026600080BD00BF6F0400204C0400206E040020D9
:1026700050040020000000207304002068030020A4
:102680006C0300207204002080B58EB000AF144BA4
:102690001B78012B1FD1124B00221A70114B1B7893
:1026A000012B0CD13B1D1049184603F0EBFA0346F1
:1026B0009AB2391D32230D4802F067F90BE03B1D39
:1026C0000B49184603F0DEFA03469AB2391D32234D
:1026D000064802F05AF900BF3837BD4680BD00BF3A
:1026E0007204002073040020888200082403002064
:1026F0009C82000880B485B000AF78603960002308
:10270000FB600023BB600AE0BB687A6813441B7857
:102710001A46FB681344FB60BB680133BB60BB68AF
:102720003A689A42F0D8FB6818461437BD4680BC18
:10273000704700000C480D490D4A002302E0D458B0
:10274000C4500433C4188C42F9D30A4A0A4C0023FB
:1027500001E013600432A242FBD3FFF773FE02F0E4
:1027600005FEFFF70BF8704700000020E401002091
:10277000B4860008E401002088040020FEE7000081
:1027800080B500AF084B1B68074A43F01003136085
:10279000032000F047F90F2000F008F8FFF74AFC8B
:1027A0000023184680BD00BF0020024080B582B0E3
:1027B00000AF7860124B1A68124B1B7819464FF421
:1027C0007A73B3FBF1F3B2FBF3F3184600F05FF951
:1027D0000346002B01D001230EE07B680F2B0AD8A3
:1027E000002279684FF0FF3000F027F9064A7B6835
:1027F0001360002300E0012318460837BD4680BD62
:1028000008000020100000200C00002080B400AF61
:10281000054B1B781A46054B1B681344034A13608B
:1028200000BFBD4680BC704710000020740400202B
:1028300080B400AF024B1B681846BD4680BC704791
:102840007404002080B584B000AF7860FFF7F0FF1B
:10285000B8607B68FB60FB68B3F1FF3F05D00A4BB3
:102860001B781A46FB681344FB6000BFFFF7E0FFCC
:102870000246BB68D31AFA689A42F7D800BF00BF75
:102880001037BD4680BD00BF1000002080B485B069
:1028900000AF78607B6803F00703FB600C4BDB68DC
:1028A000BB60BA684FF6FF031340BB60FB681A02B7
:1028B000BB68134343F0BF6343F40033BB60044A77
:1028C000BB68D36000BF1437BD4680BC704700BFF3
:1028D00000ED00E080B400AF044BDB681B0A03F09E
:1028E00007031846BD4680BC704700BF00ED00E0FE
:1028F00080B483B000AF0346FB7197F90730002B1B
:102900000BDBFB7903F01F02064997F907305B09DF
:10291000012000FA02F241F8232000BF0C37BD4627
:1029200080BC704700E100E080B483B000AF034694
:102930003960FB7197F90730002B0ADB3B68DAB28C
:102940000C4997F907301201D2B20B4483F80023E7
:102950000AE03B68DAB20849FB7903F00F03043B55
:102960001201D2B20B441A7600BF0C37BD4680BCB0
:10297000704700BF00E100E000ED00E080B489B0E6
:1029800000AFF860B9607A60FB6803F00703FB6191
:10299000FB69C3F10703042B28BF0423BB61FB6958
:1029A0000433062B02D9FB69033B00E000237B6163
:1029B0004FF0FF32BB6902FA03F3DA43BB681A40F7
:1029C0007B699A404FF0FF317B6901FA03F3D943E9
:1029D0007B680B40134318462437BD4680BC7047C4
:1029E00080B582B000AF78607B68013BB3F1807F37
:1029F00001D301230FE00A4A7B68013B53600F219A
:102A00004FF0FF30FFF790FF054B00229A60044B18
:102A100007221A60002318460837BD4680BD00BF54
:102A200010E000E080B582B000AF78607868FFF712
:102A30002DFF00BF0837BD4680BD80B586B000AF12
:102A40000346B9607A60FB7300237B61FFF742FFA6
:102A500078617A68B9687869FFF790FF024697F95C
:102A60000F3011461846FFF75FFF00BF1837BD460D
:102A700080BD80B582B000AF0346FB7197F9073087
:102A80001846FFF735FF00BF0837BD4680BD80B54B
:102A900082B000AF78607868FFF7A2FF034618465F
:102AA0000837BD4680BD80B485B000AF7860002394
:102AB000FB737B6893F82130022B08D07B680422DB
:102AC0009A637B68002283F82020012320E07B6842
:102AD0001B681A687B681B6822F00E021A607B680C
:102AE0001B681A687B681B6822F001021A607B6809
:102AF0001A6C7B68DB6B012101FA02F25A607B6879
:102B0000012283F821207B68002283F82020FB7BB0
:102B100018461437BD4680BC7047000080B584B0AD
:102B200000AF78600023FB737B6893F82130022BA1
:102B300005D07B6804229A630123FB7351E07B6814
:102B40001B681A687B681B6822F00E021A607B689B
:102B50001B681A687B681B6822F001021A607B6898
:102B60001B68224A934229D07B681B68204A934203
:102B700022D07B681B681F4A93421AD07B681B686F
:102B80001D4A934212D07B681B681C4A93420AD0AC
:102B90007B681B681A4A934202D14FF480130EE0FF
:102BA0004FF080730BE04FF4803308E04FF4805314
:102BB00005E04FF4807302E0102300E00123114A86
:102BC00053607B68012283F821207B68002283F810
:102BD00020207B685B6B002B03D07B685B6B786885
:102BE0009847FB7B18461037BD4680BD0800024061
:102BF0001C000240300002404400024058000240E5
:102C00006C0002400000024080B48BB000AF7860DE
:102C1000396000237B6200233B6269E101227B6A09
:102C200002FA03F3FB613B681B68FA691340BB615E
:102C3000BA69FB699A4240F058813B685B689A4ADE
:102C400093425ED0984A934275D8984A934258D09E
:102C5000964A93426FD8964A934252D0944A9342EE
:102C600069D8944A93424CD0924A934263D8924A8C
:102C7000934246D0904A93425DD8122B2AD8122B09
:102C800059D801A252F823F0032D0008DD2C0008CA
:102C9000EF2C0008312D0008372D0008372D0008D3
:102CA000372D0008372D0008372D0008372D000874
:102CB000372D0008372D0008372D0008372D000864
:102CC000372D0008372D0008372D0008E52C0008A7
:102CD000F92C0008794A934213D02CE03B68DB685A
:102CE0003B6229E03B68DB6804333B6224E03B68DD
:102CF000DB6808333B621FE03B68DB680C333B62F8
:102D00001AE03B689B68002B02D104233B6213E06E
:102D10003B689B68012B05D108233B627B68FA69FD
:102D20001A6109E008233B627B68FA695A6103E093
:102D300000233B6200E000BFBB69FF2B01D87B682A
:102D400001E07B6804337B61BB69FF2B02D87B6A9F
:102D50009B0002E07B6A083B9B003B617B691A6831
:102D60000F213B6901FA03F3DB431A40396A3B69DF
:102D700001FA03F31A437B691A603B685B6803F04E
:102D80008053002B00F0B1804D4B9B694C4A43F0BF
:102D9000010393614A4B9B6903F00103BB60BB686D
:102DA000484A7B6A9B08023352F82330FB607B6AF7
:102DB00003F003039B000F2202FA03F3DB43FA68DC
:102DC0001340FB607B68404A934213D07B683F4AC4
:102DD00093420DD07B683E4A934207D07B683D4AC0
:102DE000934201D1032306E0042304E0022302E01E
:102DF000012300E000237A6A02F00302920093406C
:102E0000FA681343FB602F497B6A9B080233FA6818
:102E100041F823203B685B6803F48033002B06D025
:102E20002D4B1A682C49BB6913430B6006E02A4BF3
:102E30001A68BB69DB43284913400B603B685B6839
:102E400003F40033002B06D0234B5A682249BB6998
:102E500013434B6006E0204B5A68BB69DB431E49B5
:102E600013404B603B685B6803F48013002B06D073
:102E7000194B9A681849BB6913438B6006E0164BDF
:102E80009A68BB69DB43144913408B603B685B68FD
:102E900003F40013002B21D00F4BDA680E49BB69F5
:102EA0001343CB6021E000BF00003210000031105E
:102EB000000022100000211000001210000011106C
:102EC000001002400000014000080140000C0140D9
:102ED0000010014000140140000401400B4BDA686F
:102EE000BB69DB4309491340CB607B6A01337B62DA
:102EF0003B681A687B6A22FA03F3002B7FF48EAEDC
:102F000000BF00BF2C37BD4680BC704700040140A5
:102F100080B485B000AF78600B467B807B689A6890
:102F20007B881340002B02D00123FB7301E00023B8
:102F3000FB73FB7B18461437BD4680BC704780B4DA
:102F400083B000AF78600B467B8013467B707B7844
:102F5000002B03D07A887B681A6103E07B881A040F
:102F60007B681A6100BF0C37BD4680BC704780B4D7
:102F700085B000AF78600B467B807B68DB68FB60C8
:102F80007A88FB6813401A04FB68D9437B880B409E
:102F90001A437B681A6100BF1437BD4680BC704776
:102FA00080B584B000AF78607B68002B01D101232D
:102FB0002BE17B6893F83D30DBB2002B06D17B68B8
:102FC000002283F83C207868FFF766F87B682422AB
:102FD00083F83D207B681B681A687B681B6822F0B9
:102FE00001021A607B681B681A687B681B6842F4E0
:102FF00000421A607B681B681A687B681B6822F4B1
:1030000000421A6000F0EAFFF8607B685B68814A62
:10301000934207D8FB68804A934294BF0123002360
:10302000DBB206E0FB687D4A934294BF0123002394
:10303000DBB2002B01D00123E7E0FB68784AA2FB5A
:1030400003239B0CBB607B681B685B6823F03F011C
:103050007B681B68BA680A435A607B681B681B6AF6
:1030600023F03F017B685B686A4A934202D8BB68E1
:10307000013309E0BB684FF4967202FB03F3694A1F
:10308000A2FB03239B0901337A6812680B43136286
:103090007B681B68DB6923F44F4222F0FF027B68E8
:1030A0005B685C498B4219D8FB68591E7B685B687A
:1030B0005B00B1FBF3F3591C40F6FC730B40002B93
:1030C0000AD0FB68591E7B685B685B00B1FBF3F3B9
:1030D0000133C3F30B0351E004234FE07B689B688B
:1030E000002B11D1FB68581E7B6859680B465B00AA
:1030F0000B44B0FBF3F30133C3F30B03002B0CBF02
:1031000001230023DBB212E0FB68581E7B6859687C
:103110000B469B000B4499000B44B0FBF3F30133C7
:10312000C3F30B03002B0CBF01230023DBB2002BE6
:1031300001D0012322E07B689B68002B0ED1FB6845
:10314000581E7B6859680B465B000B44B0FBF3F3D9
:103150000133C3F30B0343F400430FE0FB68581E35
:103160007B6859680B469B000B4499000B44B0FBED
:10317000F3F30133C3F30B0343F440437968096865
:103180001343CB617B681B681B6823F0C0017B681D
:10319000DA697B681B6A1A437B681B680A431A60FA
:1031A0007B681B689B6823F4034323F0FF037A6862
:1031B00011697A68D26811437A6812680B43936088
:1031C0007B681B68DB6823F0FF017B685A697B68BA
:1031D0009B691A437B681B680A43DA607B681B683B
:1031E0001A687B681B6842F001021A607B68002243
:1031F0001A647B68202283F83D207B6800221A63D2
:103200007B68002283F83E20002318461037BD4615
:1032100080BD00BFA08601007F841E00FF083D0026
:1032200083DE1B43D34D621080B588B002AFF860D7
:103230007A601A460B467B8113463B81FFF7F8FA0A
:103240007861FB6893F83D30DBB2202B40F0E080E2
:103250007B690093192301227049F86800F064F932
:103260000346002B01D00223D3E0FB6893F83C30E7
:10327000012B01D10223CCE0FB68012283F83C2022
:10328000FB681B681B6803F00103012B07D0FB6878
:103290001B681A68FB681B6842F001021A60FB6831
:1032A0001B681A68FB681B6822F400621A60FB68DE
:1032B000212283F83D20FB68102283F83E20FB6822
:1032C00000221A64FB687A685A62FB683A895A8558
:1032D000FB685B8D9AB2FB681A85FB68504ADA621C
:1032E00079897B693A6AF86800F09CF80346002BFC
:1032F00001D001238DE000233B61FB681B685B6903
:103300003B61FB681B689B693B613B6966E07A69CE
:10331000396AF86800F0DEF90346002B0DD0FB682F
:103320001B6C042B07D1FB681B681A68FB681B68C1
:1033300042F400721A6001236BE0FB685B6A1A7842
:10334000FB681B681A61FB685B6A5A1CFB685A625F
:10335000FB685B8D9BB2013B9AB2FB685A85FB68A8
:103360001B8D013B9AB2FB681A85FB681B685B6981
:1033700003F00403042B1BD1FB681B8D002B17D01B
:10338000FB685B6A1A78FB681B681A61FB685B6AFA
:103390005A1CFB685A62FB685B8D9BB2013B9AB278
:1033A000FB685A85FB681B8D013B9AB2FB681A8546
:1033B0007A69396AF86800F0CEF90346002B0DD01F
:1033C000FB681B6C042B07D1FB681B681A68FB6841
:1033D0001B6842F400721A6001231AE0FB681B8D1F
:1033E000002B94D1FB681B681A68FB681B6842F4C9
:1033F00000721A60FB68202283F83D20FB680022DF
:1034000083F83E20FB68002283F83C20002300E084
:10341000022318461837BD4680BD00BF02001000C9
:103420000000FFFF80B588B002AFF8607A603B60B3
:103430000B467B81FB68DB6A7B617B69082B06D0CE
:103440007B69012B03D07B6913F5803F08D1FB68B2
:103450001B681A68FB681B6842F480721A600BE0F4
:10346000FB681B6B122B07D1FB681B681A68FB6893
:103470001B6842F480721A603B6800937B680022EC
:103480004FF00111F86800F04FF80346002B0DD003
:10349000FB681B681B6803F48073B3F5807F03D15E
:1034A000FB684FF400721A64032335E0FB681B6964
:1034B000B3F5804F08D17B89DBB21A46FB681B68E5
:1034C00002F0FE021A611BE07B89DB11DBB203F024
:1034D0000603DBB263F00F03DAB2FB681B681A6104
:1034E0003B687A680E49F86800F075F80346002BCF
:1034F00001D0012310E07B89DAB2FB681B681A61F6
:103500003B687A680749F86800F065F80346002BC5
:1035100001D0012300E0002318461837BD4680BDC6
:10352000080001000200010080B584B000AFF8601F
:10353000B9603B601346FB7125E03B68B3F1FF3F88
:1035400021D0FFF775F90246BB69D31A3A689A424F
:1035500002D33B68002B16D1FB6800221A63FB687C
:10356000202283F83D20FB68002283F83E20FB6880
:103570001B6C43F02002FB681A64FB68002283F88E
:103580003C20012323E0BB681B0CDBB2012B0DD1D7
:10359000FB681B685B69DA43BB6813409BB2002B76
:1035A0000CBF01230023DBB21A460CE0FB681B684A
:1035B0009B69DA43BB6813409BB2002B0CBF01230D
:1035C0000023DBB21A46FB799A42B6D00023184694
:1035D0001037BD4680BD80B584B000AFF860B960DB
:1035E0007A603B6051E0FB681B685B6903F48063B1
:1035F000B3F5806F23D1FB681B681A68FB681B68F2
:1036000042F400721A60FB681B686FF480625A61B2
:10361000FB6800221A63FB68202283F83D20FB68C8
:10362000002283F83E20FB681B6C43F00402FB6819
:103630001A64FB68002283F83C20012346E07B6883
:10364000B3F1FF3F21D0FFF7F3F802463B68D31AEE
:103650007A689A4202D37B68002B16D1FB6800225D
:103660001A63FB68202283F83D20FB68002283F860
:103670003E20FB681B6C43F02002FB681A64FB6869
:10368000002283F83C20012320E0BB681B0CDBB246
:10369000012B0CD1FB681B685B69DA43BB681340E4
:1036A0009BB2002B14BF01230023DBB20BE0FB68AD
:1036B0001B689B69DA43BB6813409BB2002B14BFA5
:1036C00001230023DBB2002B8DD1002318461037D5
:1036D000BD4680BD80B584B000AFF860B9607A6047
:1036E0002DE0F86800F078F80346002B01D00123A4
:1036F0002DE0BB68B3F1FF3F21D0FFF799F80246F8
:103700007B68D31ABA689A4202D3BB68002B16D1E1
:10371000FB6800221A63FB68202283F83D20FB68C7
:10372000002283F83E20FB681B6C43F02002FB68FC
:103730001A64FB68002283F83C20012307E0FB6841
:103740001B685B6903F08003802BCAD100231846F5
:103750001037BD4680BD80B584B000AFF860B96059
:103760007A602DE0F86800F037F80346002B01D0AE
:1037700001232DE0BB68B3F1FF3F21D0FFF758F8DC
:1037800002467B68D31ABA689A4202D3BB68002B00
:1037900016D1FB6800221A63FB68202283F83D20C3
:1037A000FB68002283F83E20FB681B6C43F020027C
:1037B000FB681A64FB68002283F83C20012307E0C1
:1037C000FB681B685B6903F00403042BCAD1002368
:1037D00018461037BD4680BD80B483B000AF786016
:1037E0007B681B685B6903F48063B3F5806F1BD152
:1037F0007B681B686FF480625A617B6800221A63E1
:103800007B68202283F83D207B68002283F83E20DD
:103810007B681B6C43F004027B681A647B6800229F
:1038200083F83C20012300E0002318460C37BD46F6
:1038300080BC704780B586B000AF78607B68002B95
:1038400001D1012372E27B681B6803F00103002BA6
:1038500000F08780924B5B6803F00C03042B0CD0C4
:103860008F4B5B6803F00C03082B12D18C4B5B6809
:1038700003F48033B3F5803F0BD1894B1B6803F40D
:103880000033002B6CD07B685B68002B68D1012370
:103890004CE27B685B68B3F5803F06D1804B1B68C8
:1038A0007F4A43F4803313602EE07B685B68002B13
:1038B0000CD17B4B1B687A4A23F480331360784B1E
:1038C0001B68774A23F4802313601DE07B685B68E4
:1038D000B3F5A02F0CD1724B1B68714A43F48023BF
:1038E00013606F4B1B686E4A43F4803313600BE028
:1038F0006B4B1B686A4A23F480331360684B1B6868
:10390000674A23F4802313607B685B68002B13D025
:10391000FEF78EFF386108E0FEF78AFF02463B693A
:10392000D31A642B01D9032300E25D4B1B6803F417
:103930000033002BF0D014E0FEF77AFF386108E086
:10394000FEF776FF02463B69D31A642B01D90323A5
:10395000ECE1534B1B6803F40033002BF0D100E083
:1039600000BF7B681B6803F00203002B63D04C4B45
:103970005B6803F00C03002B0BD0494B5B6803F032
:103980000C03082B1CD1464B5B6803F48033002BDF
:1039900016D1434B1B6803F00203002B05D07B6854
:1039A0001B69012B01D00123C0E13D4B1B6823F0B3
:1039B000F8027B685B69DB00394913430B603AE02E
:1039C0007B681B69002B20D0364B01221A60FEF762
:1039D0002FFF386108E0FEF72BFF02463B69D31A40
:1039E000022B01D90323A1E12D4B1B6803F0020335
:1039F000002BF0D02A4B1B6823F0F8027B685B6930
:103A0000DB00274913430B6015E0264B00221A60A8
:103A1000FEF70EFF386108E0FEF70AFF02463B6939
:103A2000D31A022B01D9032380E11D4B1B6803F03D
:103A30000203002BF0D17B681B6803F00803002B06
:103A40003AD07B689B69002B19D0174B01221A6072
:103A5000FEF7EEFE386108E0FEF7EAFE02463B693B
:103A6000D31A022B01D9032360E10D4B5B6A03F0EB
:103A70000203002BF0D0012000F0D8FA1CE00A4B22
:103A800000221A60FEF7D4FE38610FE0FEF7D0FE88
:103A900002463B69D31A022B08D9032346E100BF33
:103AA000001002400000424280044242924B5B6A96
:103AB00003F00203002BE9D17B681B6803F00403C9
:103AC000002B00F0A6800023FB758B4BDB6903F015
:103AD0008053002B0DD1884BDB69874A43F080531C
:103AE000D361854BDB6903F08053BB60BB68012366
:103AF000FB75824B1B6803F48073002B18D17F4B3E
:103B00001B687E4A43F480731360FEF791FE3861B0
:103B100008E0FEF78DFE02463B69D31A642B01D9FB
:103B2000032303E1754B1B6803F48073002BF0D073
:103B30007B68DB68012B06D16F4B1B6A6E4A43F032
:103B4000010313622DE07B68DB68002B0CD16A4B0C
:103B50001B6A694A23F001031362674B1B6A664ABA
:103B600023F0040313621CE07B68DB68052B0CD197
:103B7000614B1B6A604A43F0040313625E4B1B6A8D
:103B80005D4A43F0010313620BE05B4B1B6A5A4A28
:103B900023F001031362584B1B6A574A23F00403B6
:103BA00013627B68DB68002B15D0FEF741FE38619D
:103BB0000AE0FEF73DFE02463B69D31A41F2883225
:103BC000934201D90323B1E04B4B1B6A03F002037C
:103BD000002BEED014E0FEF72BFE38610AE0FEF772
:103BE00027FE02463B69D31A41F28832934201D93B
:103BF00003239BE0404B1B6A03F00203002BEED132
:103C0000FB7D012B05D13C4BDB693B4A23F0805304
:103C1000D3617B68DB69002B00F08780364B5B68E3
:103C200003F00C03082B61D07B68DB69022B46D1C3
:103C3000334B00221A60FEF7FBFD386108E0FEF707
:103C4000F7FD02463B69D31A022B01D903236DE02D
:103C5000294B1B6803F00073002BF0D17B681B6AB3
:103C6000B3F5803F08D1244B5B6823F400327B68B6
:103C70009B68214913434B601F4B5B6823F474120C
:103C80007B68196A7B685B6A0B431B4913434B6073
:103C90001B4B01221A60FEF7CBFD386108E0FEF7EE
:103CA000C7FD02463B69D31A022B01D903233DE02D
:103CB000114B1B6803F00073002BF0D035E0104B64
:103CC00000221A60FEF7B4FD386108E0FEF7B0FD8F
:103CD00002463B69D31A022B01D9032326E0064B87
:103CE0001B6803F00073002BF0D11EE07B68DB69DA
:103CF000012B07D1012319E00010024000700040A1
:103D0000600042420B4B5B68FB60FB6803F480324F
:103D10007B681B6A9A4206D1FB6803F470127B68C9
:103D20005B6A9A4201D0012300E00023184618374D
:103D3000BD4680BD0010024080B584B000AF786001
:103D400039607B68002B01D10123D0E06A4B1B68EE
:103D500003F007033A689A4210D9674B1B6823F0B7
:103D6000070265493B6813430B60634B1B6803F014
:103D700007033A689A4201D00123B8E07B681B68C8
:103D800003F00203002B20D07B681B6803F00403C0
:103D9000002B05D0594B5B68584A43F4E0635360ED
:103DA0007B681B6803F00803002B05D0534B5B684E
:103DB000524A43F460535360504B5B6823F0F00267
:103DC0007B689B684D4913434B607B681B6803F01D
:103DD0000103002B40D07B685B68012B07D1474B68
:103DE0001B6803F40033002B15D101237FE07B68AF
:103DF0005B68022B07D1414B1B6803F00073002B5B
:103E000009D1012373E03D4B1B6803F00203002B33
:103E100001D101236BE0394B5B6823F003027B681F
:103E20005B68364913434B60FEF702FDF8600AE019
:103E3000FEF7FEFC0246FB68D31A41F28832934239
:103E400001D9032353E02D4B5B6803F00C027B6820
:103E50005B689B009A42EBD1274B1B6803F007037A
:103E60003A689A4210D2244B1B6823F00702224979
:103E70003B6813430B60204B1B6803F007033A6851
:103E80009A4201D0012332E07B681B6803F00403EF
:103E9000002B08D0194B5B6823F4E0627B68DB6879
:103EA000164913434B607B681B6803F00803002B23
:103EB00009D0124B5B6823F460527B681B69DB00FE
:103EC0000E4913434B6000F021F802460B4B5B6830
:103ED0001B0903F00F030A49CB5C22FA03F3094ADA
:103EE0001360094B1B681846FEF760FC0023184658
:103EF0001037BD4680BD00BF0020024000100240C8
:103F0000BC820008080000200C00002090B48AB099
:103F100000AF294B3C1D0FCB84E80F0040F201237A
:103F20003B800023FB610023BB6100237B620023F5
:103F30007B6100233B62214B5B68FB61FB6903F003
:103F40000C03042B02D0082B03D02BE01C4B3B624C
:103F50002BE0FB699B0C03F00F0328333B4413F861
:103F6000243C7B61FB6903F48033002B12D0134B9C
:103F70005B685B0C03F0010328333B4413F8283CD7
:103F8000BB617B690E4A03FB02F2BB69B2FBF3F330
:103F90007B6204E07B690B4A02FB03F37B627B6A72
:103FA0003B6202E0064B3B6200BF3B6A1846283783
:103FB000BD4690BC704700BFAC82000800100240B4
:103FC00000127A0000093D0080B400AF024B1B686C
:103FD0001846BD4680BC70470800002080B500AF81
:103FE000FFF7F2FF0246054B5B681B0A03F007036D
:103FF0000349CB5C22FA03F3184680BD001002404F
:10400000CC82000880B500AFFFF7DEFF0246054B0B
:104010005B68DB0A03F007030349CB5C22FA03F376
:10402000184680BD00100240CC82000880B485B0E4
:1040300000AF78600A4B1B680A4AA2FB03235B0AA5
:104040007A6802FB03F3FB6000BFFB685A1EFA604C
:10405000002BF9D100BF00BF1437BD4680BC7047AC
:1040600008000020D34D621080B582B000AF7860A8
:104070007B68002B01D1012341E07B6893F83D3040
:10408000DBB2002B06D17B68002283F83C207868E5
:10409000FEF752F87B68022283F83D207B681A689D
:1040A0007B6804331946104600F0BAFA7B68012297
:1040B00083F846207B68012283F83E207B6801223A
:1040C00083F83F207B68012283F840207B6801222F
:1040D00083F841207B68012283F842207B6801221B
:1040E00083F843207B68012283F844207B68012207
:1040F00083F845207B68012283F83D200023184681
:104100000837BD4680BD000080B485B000AF786040
:104110007B6893F83D30DBB2012B01D0012332E004
:104120007B68022283F83D207B681B68184A934213
:104130000ED07B681B68B3F1804F09D07B681B6889
:10414000144A934204D07B681B68134A934211D1EE
:104150007B681B689B6803F00703FB60FB68062B0A
:1041600010D07B681B681A687B681B6842F00102EC
:104170001A6007E07B681B681A687B681B6842F05E
:1041800001021A60002318461437BD4680BC7047F0
:10419000002C0140000400400008004080B485B0BD
:1041A00000AF78607B6893F83D30DBB2012B01D023
:1041B00001233AE07B68022283F83D207B681B687C
:1041C000DA687B681B6842F00102DA607B681B6872
:1041D000184A93420ED07B681B68B3F1804F09D018
:1041E0007B681B68144A934204D07B681B68134A9F
:1041F000934211D17B681B689B6803F00703FB6047
:10420000FB68062B10D07B681B681A687B681B68EC
:1042100042F001021A6007E07B681B681A687B683D
:104220001B6842F001021A60002318461437BD468D
:1042300080BC7047002C0140000400400008004092
:1042400080B582B000AF78607B681B681B6903F0A3
:104250000203022B22D17B681B68DB6803F0020398
:10426000022B1BD17B681B686FF002021A617B680E
:1042700001221A777B681B689B6903F00303002BFC
:1042800003D0786800F0B1F905E0786800F0A4F98F
:10429000786800F0B3F97B6800221A777B681B68A6
:1042A0001B6903F00403042B22D17B681B68DB68C5
:1042B00003F00403042B1BD17B681B686FF004021E
:1042C0001A617B6802221A777B681B689B6903F47A
:1042D0004073002B03D0786800F087F905E0786818
:1042E00000F07AF9786800F089F97B6800221A7783
:1042F0007B681B681B6903F00803082B22D17B68CD
:104300001B68DB6803F00803082B1BD17B681B6864
:104310006FF008021A617B6804221A777B681B68B9
:10432000DB6903F00303002B03D0786800F05DF92C
:1043300005E0786800F050F9786800F05FF97B6874
:1043400000221A777B681B681B6903F01003102B8F
:1043500022D17B681B68DB6803F01003102B1BD194
:104360007B681B686FF010021A617B6808221A775D
:104370007B681B68DB6903F44073002B03D078680B
:1043800000F033F905E0786800F026F9786800F06D
:1043900035F97B6800221A777B681B681B6903F07C
:1043A0000103012B0ED17B681B68DB6803F001035E
:1043B000012B07D17B681B686FF001021A617868D6
:1043C000FDF7D6FB7B681B681B6903F08003802B1D
:1043D0000ED17B681B68DB6803F08003802B07D15C
:1043E0007B681B686FF080021A61786800F077FACA
:1043F0007B681B681B6903F04003402B0ED17B6870
:104400001B68DB6803F04003402B07D17B681B6807
:104410006FF040021A61786800F0F9F87B681B6859
:104420001B6903F02003202B0ED17B681B68DB681F
:1044300003F02003202B07D17B681B686FF020025C
:104440001A61786800F042FA00BF0837BD4680BDA7
:1044500080B584B000AF786039607B6893F83C30F9
:10446000012B01D10223B3E07B68012283F83C20B9
:104470007B68022283F83D207B681B689B68FB6099
:10448000FB6823F07703FB60FB6823F47F43FB604A
:104490007B681B68FA689A603B681B68B3F5005F2D
:1044A0003ED0B3F5005F00F28780B3F5805F00F087
:1044B0008580B3F5805F7FD8702B1AD0702B7BD8A6
:1044C000602B50D0602B77D8502B3CD0502B73D81A
:1044D000402B58D0402B6FD8302B64D0302B6BD86A
:1044E000202B60D0202B67D8002B5CD0102B5AD00B
:1044F00062E07B6818683B6899683B685A683B686B
:10450000DB6800F066F97B681B689B68FB60FB68F2
:1045100043F07703FB607B681B68FA689A604EE0A3
:104520007B6818683B6899683B685A683B68DB6839
:1045300000F04FF97B681B689A687B681B6842F43F
:1045400080429A603BE07B6818683B6859683B682A
:10455000DB681A4600F0C6F87B681B6850211846D5
:1045600000F01DF92BE07B6818683B6859683B68D0
:10457000DB681A4600F0E4F87B681B686021184687
:1045800000F00DF91BE07B6818683B6859683B68D0
:10459000DB681A4600F0A6F87B681B6840211846C5
:1045A00000F0FDF80BE07B681A683B681B68194651
:1045B000104600F0F4F802E000BF00E000BF7B68A6
:1045C000012283F83D207B68002283F83C200023F1
:1045D00018461037BD4680BD80B483B000AF786008
:1045E00000BF0C37BD4680BC704780B483B000AFBD
:1045F000786000BF0C37BD4680BC704780B483B084
:1046000000AF786000BF0C37BD4680BC704780B4F7
:1046100083B000AF786000BF0C37BD4680BC7047E8
:1046200080B485B000AF786039607B681B68FB6040
:104630007B68294A93420BD07B68B3F1804F07D047
:104640007B68264A934203D07B68254A934208D16F
:10465000FB6823F07003FB603B685B68FA681343F8
:10466000FB607B681C4A93420BD07B68B3F1804FA0
:1046700007D07B68194A934203D07B68184A93425B
:1046800008D1FB6823F44073FB603B68DB68FA6881
:104690001343FB60FB6823F080023B685B691343B4
:1046A000FB607B68FA681A603B689A687B68DA622C
:1046B0003B681A687B689A627B68074A934203D119
:1046C0003B681A697B681A637B6801225A6100BFE4
:1046D0001437BD4680BC7047002C014000040040E8
:1046E0000008004080B487B000AFF860B9607A601D
:1046F000FB681B6A7B61FB681B6A23F00102FB6895
:104700001A62FB689B693B613B6923F0F0033B61E4
:104710007B681B013A6913433B617B6923F00A0301
:104720007B617A69BB6813437B61FB683A699A6174
:10473000FB687A691A6200BF1C37BD4680BC7047AF
:1047400080B487B000AFF860B9607A60FB681B6A1C
:1047500023F01002FB681A62FB689B697B61FB68AF
:104760001B6A3B617B6923F470437B617B681B039D
:104770007A6913437B613B6923F0A0033B61BB680B
:104780001B013A6913433B61FB687A699A61FB68D4
:104790003A691A6200BF1C37BD4680BC704780B4BE
:1047A00085B000AF786039607B689B68FB60FB6810
:1047B00023F07003FB603A68FB68134343F0070380
:1047C000FB607B68FA689A6000BF1437BD4680BC06
:1047D000704780B487B000AFF860B9607A603B6022
:1047E000FB689B687B617B6923F47F437B613B684B
:1047F0001A027B681A43BB6813437A6913437B61CF
:10480000FB687A699A6000BF1C37BD4680BC704760
:1048100080B485B000AF786039607B6893F83C3035
:10482000012B01D1022346E07B68012283F83C2062
:104830007B68022283F83D207B681B685B68FB6015
:104840007B681B689B68BB60FB6823F07003FB60A0
:104850003B681B68FA681343FB607B681B68FA6857
:104860005A607B681B68164A93420ED07B681B68AF
:10487000B3F1804F09D07B681B68124A934204D081
:104880007B681B68104A93420CD1BB6823F08003FD
:10489000BB603B685B68BA681343BB607B681B689E
:1048A000BA689A607B68012283F83D207B68002209
:1048B00083F83C20002318461437BD4680BC70475F
:1048C000002C0140000400400008004080B483B088
:1048D00000AF786000BF0C37BD4680BC704780B425
:1048E00083B000AF786000BF0C37BD4680BC704716
:1048F00080B582B000AF78607B68002B01D10123C6
:104900003FE07B6893F83D30DBB2002B06D17B683B
:10491000002283F83C207868FDF746FC7B6824225F
:1049200083F83D207B681B68DA687B681B6822F48B
:104930000052DA60786800F085FC7B681B681A69B1
:104940007B681B6822F490421A617B681B685A6975
:104950007B681B6822F02A025A617B681B68DA6850
:104960007B681B6842F40052DA607B6800221A649C
:104970007B68202283F83D207B68202283F83E203C
:10498000002318460837BD4680BD80B58AB002AF07
:10499000F860B9603B601346FB8000237B61FB68D5
:1049A00093F83D30DBB2202B7CD1BB68002B02D0CA
:1049B000FB88002B01D1012375E0FB6893F83C30A4
:1049C000012B01D102236EE0FB68012283F83C2019
:1049D000FB6800221A64FB68212283F83D20FDF762
:1049E00027FF7861FB68FA889A84FB68FA88DA8482
:1049F000FB689B68B3F5805F08D1FB681B69002BDF
:104A000004D10023FB61BB68BB6103E0BB68FB61B1
:104A10000023BB61FB68002283F83C202AE03B684E
:104A200000937B6900228021F86800F038FA034681
:104A3000002B01D0032336E0FB69002B0BD1BB69AF
:104A40001B881A46FB681B68C2F308025A60BB69E0
:104A50000233BB6107E0FB691A78FB681B685A6088
:104A6000FB690133FB61FB68DB8C9BB2013B9AB2B3
:104A7000FB68DA84FB68DB8C9BB2002BCFD13B68F0
:104A800000937B6900224021F86800F008FA034691
:104A9000002B01D0032306E0FB68202283F83D2091
:104AA000002300E0022318462037BD4680BD80B5B4
:104AB00084B000AFF860B9601346FB80FB6893F8E0
:104AC0003E30DBB2202B1DD1BB68002B02D0FB880F
:104AD000002B01D1012316E0FB6893F83C30012B39
:104AE00001D102230FE0FB68012283F83C20FB6820
:104AF00000221A63FB881A46B968F86800F019FAB0
:104B0000034600E0022318461037BD4680BD000072
:104B100080B58AB000AF78607B681B681B687B62D9
:104B20007B681B68DB683B627B681B685B69FB61B9
:104B30000023BB6100237B617B6A03F00F03BB6131
:104B4000BB69002B0DD17B6A03F02003002B08D03A
:104B50003B6A03F02003002B03D0786800F0C9FA09
:104B60007BE1BB69002B00F0B180FB6903F001031E
:104B7000002B05D13B6A03F49073002B00F0A68054
:104B80007B6A03F00103002B0AD03B6A03F48073B5
:104B9000002B05D07B681B6C43F001027B681A6414
:104BA0007B6A03F00403002B0AD0FB6903F00103C6
:104BB000002B05D07B681B6C43F002027B681A64F3
:104BC0007B6A03F00203002B0AD0FB6903F00103A8
:104BD000002B05D07B681B6C43F004027B681A64D1
:104BE0007B6A03F00803002B0FD03B6A03F020031D
:104BF000002B04D1FB6903F00103002B05D07B6877
:104C00001B6C43F008027B681A647B681B6C002BEA
:104C100000F01E817B6A03F02003002B07D03B6A63
:104C200003F02003002B02D0786800F062FA7B6862
:104C30001B685B6903F04003002B14BF01230023B2
:104C4000DBB27B617B681B6C03F00803002B02D195
:104C50007B69002B31D0786800F0A4F97B681B6871
:104C60005B6903F04003002B23D07B681B685A6903
:104C70007B681B6822F040025A617B689B6B002BAB
:104C800013D07B689B6B764A5A637B689B6B184694
:104C9000FDF744FF0346002B16D07B689B6B5B6BD4
:104CA0007A68926B104698470EE0786800F0E3F857
:104CB0000AE0786800F0DFF806E0786800F0DBF8DA
:104CC0007B6800221A64C3E000BFC1E07B681B6BF5
:104CD000012B40F0A1807B6A03F01003002B00F051
:104CE0009B803B6A03F01003002B00F095800023AB
:104CF000FB607B681B681B68FB607B681B685B68EC
:104D0000FB60FB687B681B685B6903F04003002B5A
:104D10004ED07B689B6B1B685B683B823B8A002B99
:104D200000F098807B689B8D3A8A9A4280F092804E
:104D30007B683A8ADA857B689B6B9B69202B2BD03A
:104D40007B681B68DA687B681B6822F48072DA6013
:104D50007B681B685A697B681B6822F001025A61F4
:104D60007B681B685A697B681B6822F040025A61A5
:104D70007B68202283F83E207B6800221A637B68D0
:104D80001B68DA687B681B6822F01002DA607B68B7
:104D90009B6B1846FDF787FE7B689A8D7B68DB8DE1
:104DA0009BB2D31A9BB21946786800F06DF851E0B7
:104DB0007B689A8D7B68DB8D9BB2D31A7B827B6884
:104DC000DB8D9BB2002B47D07B8A002B44D07B68C5
:104DD0001B68DA687B681B6822F49072DA607B6873
:104DE0001B685A697B681B6822F001025A617B6864
:104DF000202283F83E207B6800221A637B681B68B0
:104E0000DA687B681B6822F01002DA607B8A194638
:104E1000786800F039F81FE07B6A03F08003002B0C
:104E200008D03B6A03F08003002B03D0786800F0C1
:104E3000F9F812E07B6A03F04003002B0DD03B6AC7
:104E400003F04003002B08D0786800F03AF904E042
:104E500000BF02E000BF00E000BF2837BD4680BDB4
:104E6000FD4F000880B483B000AF786000BF0C37FE
:104E7000BD4680BC704780B483B000AF786000BF8F
:104E80000C37BD4680BC704780B483B000AF7860FB
:104E90000B467B8000BF0C37BD4680BC704780B599
:104EA00084B000AFF860B9603B601346FB712CE042
:104EB000BB69B3F1FF3F28D0BB69002B07D0FDF7DA
:104EC000B7FC02463B68D31ABA699A421DD2FB6806
:104ED0001B68DA68FB681B6822F4D072DA60FB6832
:104EE0001B685A69FB681B6822F001025A61FB6863
:104EF000202283F83D20FB68202283F83E20FB68B7
:104F0000002283F83C2003230FE0FB681B681A682B
:104F1000BB681340BA689A420CBF01230023DBB27E
:104F20001A46FB799A42C3D0002318461037BD4673
:104F300080BD80B485B000AFF860B9601346FB80D7
:104F4000FB68BA689A62FB68FA889A85FB68FA88F7
:104F5000DA85FB6800221A64FB68222283F83E206F
:104F6000FB68002283F83C20FB681B68DA68FB685A
:104F70001B6842F48072DA60FB681B685A69FB6840
:104F80001B6842F001025A61FB681B68DA68FB6823
:104F90001B6842F02002DA60002318461437BD4631
:104FA00080BC704780B483B000AF78607B681B68BA
:104FB000DA687B681B6822F49072DA607B681B6891
:104FC0005A697B681B6822F001025A617B681B6B7F
:104FD000012B07D17B681B68DA687B681B6822F0AD
:104FE0001002DA607B68202283F83E207B68002272
:104FF0001A6300BF0C37BD4680BC704780B584B0D3
:1050000000AF78607B685B6AFB60FB680022DA8532
:10501000FB680022DA84F868FFF72DFF00BF103725
:10502000BD4680BD80B485B000AF78607B6893F8E2
:105030003D30DBB2212B3ED17B689B68B3F5805FAE
:1050400014D17B681B69002B10D17B681B6AFB6045
:10505000FB681B881A467B681B68C2F308025A600B
:105060007B681B6A9A1C7B681A6208E07B681B6A73
:10507000591C7A6811621A787B681B685A607B68D1
:10508000DB8C9BB2013B9BB27A681946D184002B22
:105090000FD17B681B68DA687B681B6822F080028E
:1050A000DA607B681B68DA687B681B6842F0400244
:1050B000DA60002300E0022318461437BD4680BCA6
:1050C000704780B582B000AF78607B681B68DA6893
:1050D0007B681B6822F04002DA607B68202283F83C
:1050E0003D207868FFF7BEFE002318460837BD460E
:1050F00080BD80B586B000AF78607B6893F83E30A5
:10510000DBB2222B40F099807B689B68B3F5805F0F
:1051100017D17B681B69002B13D100237B617B684F
:105120009B6A3B617B681B685B689BB2C3F30803A7
:105130009AB23B691A807B689B6A9A1C7B689A6268
:1051400026E07B689B6A7B6100233B617B689B68F0
:10515000B3F5805F07D07B689B68002B0AD17B6822
:105160001B69002B06D17B681B685B68DAB27B6920
:105170001A7008E07B681B685B68DBB203F07F0392
:10518000DAB27B691A707B689B6A5A1C7B689A62E8
:105190007B68DB8D9BB2013B9BB27A681946D18557
:1051A000002B48D17B681B68DA687B681B6822F09B
:1051B0002002DA607B681B68DA687B681B6822F46F
:1051C0008072DA607B681B685A697B681B6822F012
:1051D00001025A617B68202283F83E207B681B6BAA
:1051E000012B23D17B6800221A637B681B68DA6875
:1051F0007B681B6822F01002DA607B681B681B6802
:1052000003F01003102B0AD10023FB607B681B689E
:105210001B68FB607B681B685B68FB60FB687B68E6
:105220009B8D19467868FFF72FFE02E07868FCF73F
:1052300071FA002302E0002300E002231846183729
:10524000BD4680BD80B584B000AF78607B681B68C8
:105250001B6923F440517B68DA687B681B680A434A
:105260001A617B689A687B681B691A437B685B6973
:105270001343BB607B681B68DB6823F4B05323F0E7
:105280000C037A681268B9680B43D3607B681B68AB
:105290005B6923F440717B689A697B681B680A43E9
:1052A0005A617B681B682C4A934203D1FEF7AAFE21
:1052B000F86002E0FEF792FEF860FA6813469B0081
:1052C00013449A001A447B685B689B00B2FBF3F3BB
:1052D000224AA2FB03235B091901FA6813469B00CB
:1052E00013449A001A447B685B689B00B2FBF3F29C
:1052F0001A4BA3FB02035B09642000FB03F3D31AE0
:105300001B013233154AA2FB03235B0903F0F003B0
:105310001944FA6813469B0013449A001A447B68A8
:105320005B689B00B2FBF3F20C4BA3FB02035B092F
:10533000642000FB03F3D31A1B013233074AA2FB9C
:1053400003235B0903F00F027B681B680A449A6021
:1053500000BF1037BD4680BD003801401F85EB51AE
:10536000014B1868704700BF1400002070B500267C
:105370000C4D0D4C641BA410A64209D102F0FCFE9A
:1053800000260A4D0A4C641BA410A64205D170BD2C
:1053900055F8043B98470136EEE755F8043B98472B
:1053A0000136F2E7AC860008AC860008AC8600083F
:1053B000B086000803460244934200D1704703F8C8
:1053C000011BF9E7002B2DE9F0471F46BBBF03F196
:1053D00000431F4600232D2388B01446129A109DC7
:1053E0001370149BDDF84CA023F02008B8F1460F91
:1053F00005D0B8F1450F00D10135022300E00323A9
:1054000007AA049206AACDE902A2CDE900352246F8
:105410003B4600F0E5FCB8F1470F064602D1119B70
:10542000DB0722D5B8F1460F06EB050910D133781A
:10543000302B0AD10022002320463946FBF7B4FA6C
:1054400018B9C5F10105CAF80050DAF800309944DE
:105450000022002320463946FBF7A6FA08B1CDF812
:105460001C903022079B4B4507D33046079B159A6B
:105470009B1B136008B0BDE8F087591C07911A7098
:10548000F0E70346F7B5002903F8022BB6BF2D223B
:105490002B224942092942702BDD0DF10704A44655
:1054A0000A2791FBF7F60A46A64607FB1615632A5C
:1054B00005F13005314604F1FF340EF8015CF0DCF3
:1054C0003031AEF1020504F8011C2946441C614547
:1054D0000AD30DF10902A2EB0E02654588BF002236
:1054E0001344181A03B0F0BD11F8012B04F8012F72
:1054F000EDE7302330318370C170031DF1E7000008
:105500002DE9F04F91B00C46DDF8688016461F4635
:10551000054601F053FA036818460993FAF718FE96
:1055200000230E93D8F800300A90073323F00703C6
:1055300003F1080294F81890D4F800B0C8F80020DD
:10554000D3E90023C4E91223D4E9128A2AF00043E4
:105550000B934FF0FF3240469C4B0B99FBF756FAEA
:1055600070BB4FF0FF324046984B0B99FBF730FA77
:1055700030BB0022002340465146FBF71FFA10B112
:105580002D2384F84330924B9248B9F1470F94BFD2
:105590009846804603234FF0000A23612BF0040352
:1055A000236033462146284600970FAA00F0D4F91D
:1055B000013040F090804FF0FF3011B0BDE8F08F27
:1055C0004246534640465146FBF720FA48B1BAF1ED
:1055D000000FB8BF2D238048B8BF84F843307F4BFD
:1055E000D3E7636809F0DF015A1C42D106236360E8
:1055F000002206920EAACDE904920DAA4BF4806314
:1056000003920DF13302CDE9013223606368424613
:105610000093284653460B91FFF7D4FE0B99804622
:1056200047290D9908D1C81C02DB6368994240DD07
:10563000A9F102095FFA89F9B9F1650F1FD84A4645
:10564000013904F150000D91FFF71BFF0E9A8246BD
:105650001318012A236102DC2268D20701D5013325
:1056600023619DF83330002B9BD02D2384F84330E9
:1056700097E74729BCD1002BBAD10123B7E7B9F18D
:10568000660F18D1002963680BDD216113B9226808
:10569000D00702D501330B4423614FF0000AA16506
:1056A000DFE713B92268D20701D50233F4E70123FB
:1056B000F2E74FF067090E9B994205DB23682161F1
:1056C000D807EAD54B1CE7E70029CCBF0122C1F17E
:1056D00002021344E0E723685A0507D423694246CF
:1056E00031462846B84701302BD164E7B9F1650F40
:1056F00040F2DD80D4E9120100220023FBF754F9C7
:10570000002833D0012331462846354AB8470130B6
:105710003FF451AFDDE90D239A4202DB2368D8073D
:105720000FD5DDE9092331462846B84701303FF45B
:1057300042AF4FF0000804F11A090E9B013B4345AC
:1057400009DC23689B0700F10281E0680F9B984207
:10575000B8BF184631E701234A4631462846B847C4
:1057600001303FF428AF08F10108E6E70D9B002B5C
:1057700038DC012331462846194AB84701303FF446
:105780001AAFDDE90D23134302D12368D907D8D519
:10579000DDE9092331462846B84701303FF40BAF15
:1057A0004FF0000904F11A0A0D9B5B424B4501DCE6
:1057B0000E9B94E70123524631462846B8470130F4
:1057C0003FF4F9AE09F10109EEE700BFFFFFEF7FFB
:1057D000D8820008DC820008E4820008E082000829
:1057E000E88200080E9AA36D9A42A8BF1A46002AC2
:1057F000914637DC4FF0000B29EAE97904F11A02EF
:10580000D4F858A0AAEB09035B4533DCDDE90D238E
:105810009A423BDB2368DA0738D40E9B0D99A3EB41
:105820000A02A3EB01099145A8BF9146B9F1000F07
:1058300034DC4FF0000829EAE97904F11A0ADDE9BD
:105840000D239B1AA3EB090343457FF77AAF01238E
:10585000524631462846B84701303FF4ACAE08F115
:105860000108ECE71346314642462846B847013066
:10587000C0D1A0E60123314628460B92B84701303B
:105880003FF499AE0B9A0BF1010BB9E73146DDE914
:1058900009232846B8470130BFD18CE64B46314634
:1058A000284608EB0A02B8470130C2D183E60E9AB7
:1058B000012A01DCDB0737D5012342463146284661
:1058C000B84701303FF477AEDDE909233146284679
:1058D000B84701303FF46FAED4E912010022002333
:1058E000FBF762F8D8B90E9B08F10102013B314683
:1058F0002846B84701300ED15DE601234A463146BD
:105900002846B84701303FF456AE08F101080E9B17
:10591000013B4345F1DC534604F15002E0E64FF011
:10592000000804F11A09F2E701234246DFE70123E8
:105930004A4631462846B84701303FF43CAE08F1AC
:105940000108E3680F995B1A4345F0DCFDE64FF070
:10595000000804F11909F4E72DE9F04716469946C5
:105960008A680B6907469342B8BF1346336091F8C3
:1059700043200C46DDF820800AB1013333602368F0
:10598000990642BF336802333360256815F0060577
:1059900006D104F1190AE36832689B1AAB4228DC8D
:1059A00094F84320131E226818BF012392062DD4B9
:1059B0004946384604F14302C047013020D02368ED
:1059C000E56803F00603042B18BF002532684FF08A
:1059D0000006A36808BFAD1A226908BF25EAE5756D
:1059E0009342C4BF9B1AED181A34B5421AD1002055
:1059F00008E00123524649463846C047013003D1EA
:105A00004FF0FF30BDE8F0870135C4E73020E118E2
:105A100081F843005A1C94F845102244023382F85E
:105A20004310C5E70123224649463846C0470130A6
:105A3000E6D00136D9E700002DE9FF470F7E9146F9
:105A4000782F80460C469A460C9D01F1430207D8F8
:105A5000622F0AD8002F00F0D980582F00F0A480C0
:105A600004F1420584F842703AE0A7F16303152B74
:105A7000F6D801A151F823F0D15A0008E55A0008E0
:105A8000615A0008615A0008615A0008615A00080A
:105A9000E55A0008615A0008615A0008615A000876
:105AA000615A0008F35B0008155B0008D55B00082D
:105AB000615A0008615A0008155C0008615A000824
:105AC000155B0008615A0008615A0008DD5B000898
:105AD0002B681A1D1B682A6004F1420584F84230C5
